:100000000C9435000C945D000C945D000C945D0024
:100010000C945D000C945D000C945D000C945D00EC
:100020000C945D000C945D000C945D000C945D00DC
:100030000C945D000C945D000C945D000C945D00CC
:100040000C94BF010C945D000C9485010C944A0142
:100050000C945D000C945D000C945D000C945D00AC
:100060000C945D000C945D00090211241FBECFEFBB
:10007000D8E0DEBFCDBF11E0A0E0B1E0E6E3F6E0FE
:1000800002C005900D92A432B107D9F721E0A4E295
:10009000B1E001C01D92A73DB207E1F710E0C5E352
:1000A000D0E004C02197FE010E941303C433D1079E
:1000B000C9F70E9444020C9410030C9400000895A8
:1000C0000F931F93CF93DF93FC01A685B7858D0116
:1000D000005C1F4FE8018881998101968F739927F1
:1000E000AD014E5B5F4FEA0128813981281739073E
:1000F000D1F3E80128813981A20FB31F6C93A68543
:10010000B785A05CBF4F11969C938E93A689B78943
:100110002C9181E090E0078C02C0880F991F0A940F
:10012000E2F7822B8C9381E081A30488F589E02D8E
:1001300080818064808381E090E0DF91CF911F9186
:100140000F910895FC0181A1882329F0A489B58924
:100150008C9186FFFBCF11A20895FC01A485B58583
:10016000FD01E05CFF4F20813181329680819181D9
:100170002817390779F080819181A80FB91F8C91D8
:10018000208131812F5F3F4F2F73332731832083AD
:1001900090E008958FEF9FEF0895DC011C96ED919C
:1001A000FC911D97DF01A05CBF4F2D913C911197F1
:1001B00012968D919C9111972817390739F08D91DE
:1001C0009C91E80FF91F808190E008958FEF9FEFD9
:1001D0000895FC0124853585F901E05CFF4F80819D
:1001E0009181329620813181821B930B8F739927E5
:1001F000089585EB91E00C94E900CF92DF92EF92A5
:10020000FF920F931F93CF93DF936C01EB017B0160
:10021000E40EF51E00E010E0CE15DF0561F06991F7
:10022000D601ED91FC910190F081E02DC601099578
:10023000080F191FF1CFC801DF91CF911F910F91C6
:10024000FF90EF90DF90CF9008953FB7F8948091A2
:10025000290190912A01A0912B01B0912C0126B582
:10026000A89B05C02F3F19F00196A11DB11D3FBFEE
:10027000BA2FA92F982F8827820F911DA11DB11D7C
:10028000BC01CD0142E0660F771F881F991F4A9578
:10029000D1F708951F920F920FB60F9211242F934A
:1002A0003F938F939F93EF93FF9320916D01309134
:1002B0006E0180916F01909170012817390731F418
:1002C0008091C1008F7D8093C10014C0E0916F01C7
:1002D000F0917001E35DFE4F208180916F0190915C
:1002E000700101968F7399279093700180936F012D
:1002F0002093C600FF91EF919F918F913F912F9195
:100300000F900FBE0F901F9018951F920F920FB66F
:100310000F9211242F934F935F938F939F93EF939B
:10032000FF938091C00082FD1CC02091C600809187
:10033000B1019091B2014091B3015091B401019685
:100340008F7399274817590771F0E091B101F09127
:10035000B201EF58FE4F20839093B2018093B10118
:1003600002C08091C600FF91EF919F918F915F91A4
:100370004F912F910F900FBE0F901F9018951F92C5
:100380000F920FB60F9211242F933F938F939F9349
:10039000AF93BF938091250190912601A0912701F1
:1003A000B09128013091240123E0230F2D3720F450
:1003B0000196A11DB11D05C026E8230F0296A11DBF
:1003C000B11D209324018093250190932601A093D1
:1003D0002701B09328018091290190912A01A091D1
:1003E0002B01B0912C010196A11DB11D8093290113
:1003F00090932A01A0932B01B0932C01BF91AF9150
:100400009F918F913F912F910F900FBE0F901F9052
:100410001895E5EBF1E01382128288EE93E0A0E0FC
:10042000B0E084839583A683B78384E091E09183D1
:10043000808381E791E0958784878DE291E09787BB
:10044000868785EC90E0918B808B84EC90E0938B99
:10045000828B80EC90E0958B848B81EC90E0978B85
:10046000868B82EC90E0918F808F86EC90E0938F6A
:10047000828F84E0848F83E0858F87E0868F85E09C
:10048000878F81E080A30895789484B5826084BDCD
:1004900084B5816084BD85B5826085BD85B5816088
:1004A00085BD80916E00816080936E001092810006
:1004B00080918100826080938100809181008160C1
:1004C0008093810080918000816080938000809182
:1004D000B10084608093B1008091B000816080930E
:1004E000B00080917A00846080937A0080917A00D5
:1004F000826080937A0080917A00816080937A0094
:1005000080917A00806880937A001092C100E09117
:10051000C901F091CA0181E090E09C010090D501F1
:1005200002C0220F331F0A94E2F72083E091C50135
:10053000F091C6011082E091C701F091C8012FEC43
:1005400020831092D601E091CB01F091CC01408143
:100550009C010090D10102C0220F331F0A94E2F7E0
:10056000242B2083E091CB01F091CC0140819C01B0
:100570000090D20102C0220F331F0A94E2F7242B0D
:100580002083E091CB01F091CC0140819C0100904F
:10059000D30102C0220F331F0A94E2F7242B2083D9
:1005A000E091CB01F091CC0120810090D40102C0F8
:1005B000880F991F0A94E2F780958223808342E195
:1005C00050E060E171E085EB91E00E94FD006DE09C
:1005D00085EB91E00E9460006AE085EB91E00E946B
:1005E00060000E942501EB0184EFC82EDD24D39426
:1005F000E12CF12C0E9425016C1B7D0B683E7340A1
:10060000C8F381E0C81AD108E108F108C851DC4FED
:10061000C114D104E104F10469F70E94F900CFCFBD
:10062000F8940C941903EE0FFF1F0590F491E02D40
:060630000994F894FFCFCD
:10063600000000006000FD00E900AD00CD00A20052
:1006460068656C6C6F776F726C6431303130313045
:04065600313000003F
:00000001FF
