:100000000C945D000C9485000C9485000C94850084
:100010000C9485000C9485000C9485000C9485004C
:100020000C9485000C9485000C9485000C9485003C
:100030000C9485000C9485000C9485000C9485002C
:100040000C949A030C9485000C9460030C94250383
:100050000C9485000C9485000C9485000C9485000C
:100060000C9485000C9485000000000024002700FB
:100070002A0000000000250028002B0004040404CE
:100080000404040402020202020203030303030342
:10009000010204081020408001020408102001021F
:1000A00004081020000000070002010000030406FD
:1000B0000000000000000000E40311241FBECFEF89
:1000C000D8E0DEBFCDBF12E0A0E0B1E0E4EBF1E1AB
:1000D00002C005900D92A638B107D9F723E0A6E833
:1000E000B2E001C01D92A534B207E1F710E0CDE502
:1000F000D0E004C02197FE010E94D208CC35D10780
:10010000C9F70E941F040C9499060C940000E1EBBF
:10011000F0E09491EDE9F0E02491E9E8F0E0E49179
:10012000EE2309F43CC0992339F1933091F038F46F
:100130009130A9F0923001F594B59F7D12C09630B0
:1001400091F09730A1F09430B9F4909180009F7DA8
:1001500003C0909180009F77909380000DC094B56C
:100160009F7794BD09C09091B0009F7703C0909194
:10017000B0009F7D9093B000F0E0EE0FFF1FEE58AF
:10018000FF4FA591B4919FB7F894811104C08C9151
:100190002095282302C0EC912E2B2C939FBF08950D
:1001A000EDE9F0E02491E9E8F0E08491882399F00A
:1001B00090E0880F991FFC01E859FF4FA591B49179
:1001C000FC01EE58FF4F859194918FB7F894EC9114
:1001D000E22BEC938FBF089508950F931F93CF9355
:1001E000DF93FC01A685B7858D01005C1F4FE801F8
:1001F0008881998101968F739927AD014E5B5F4F7E
:10020000EA012881398128173907D1F3E8012881CB
:100210003981A20FB31F6C93A685B785A05CBF4F31
:1002200011969C938E93A689B7892C9181E090E0DA
:10023000078C02C0880F991F0A94E2F7822B8C93D7
:1002400081E081A30488F589E02D8081806480832A
:1002500081E090E0DF91CF911F910F910895FC0113
:1002600081A1882329F0A489B5898C9186FFFBCFD1
:1002700011A20895FC01A485B585FD01E05CFF4F46
:10028000208131813296808191812817390779F058
:1002900080819181A80FB91F8C91208131812F5FBE
:1002A0003F4F2F7333273183208390E008958FEFE2
:1002B0009FEF0895DC011C96ED91FC911D97DF01E5
:1002C000A05CBF4F2D913C91119712968D919C91FE
:1002D00011972817390739F08D919C91E80FF91F74
:1002E000808190E008958FEF9FEF0895FC012485B1
:1002F0003585F901E05CFF4F808191813296208144
:100300003181821B930B8F73992708958FE193E0BE
:100310000C947601CF92DF92EF92FF920F931F938E
:10032000CF93DF936C01EB017B01E40EF51E00E03F
:1003300010E0CE15DF0561F06991D601ED91FC91D9
:100340000190F081E02DC6010995080F191FF1CF2A
:10035000C801DF91CF911F910F91FF90EF90DF9037
:10036000CF9008953FB7F8948091930290919402B2
:10037000A0919502B091960226B5A89B05C02F3F8B
:1003800019F00196A11DB11D3FBFBA2FA92F982FBB
:100390008827820F911DA11DB11DBC01CD0142E036
:1003A000660F771F881F991F4A95D1F70895CF923E
:1003B000DF92EF92FF92CF93DF936B017C010E945B
:1003C000B201EB01C114D104E104F10479F00E94FF
:1003D000B2016C1B7D0B683E7340A0F381E0C81A2C
:1003E000D108E108F108C851DC4FECCFDF91CF9183
:1003F000FF90EF90DF90CF900895E6E8F2E0108252
:10040000128248E050E0BF018FE193E00C948A0132
:10041000E6E8F2E08083628348E050E0BF018FE1CC
:1004200093E00C948A013F924F925F926F927F9279
:100430008F929F92AF92BF92CF92DF92EF92FF92F4
:100440000F931F93CF93DF93CDB7DEB7CD58D1096C
:100450000FB6F894DEBF0FBECDBF2C013E018FE575
:10046000680E711C8AE1E6E0F1E0D30101900D9283
:100470008A95E1F784E3E0E2F1E0DE011196019074
:100480000D928A95E1F76E0199E7C90ED11C85E1BD
:10049000E4E5F1E0D60101900D928A95E1F78AE258
:1004A000E9E6F1E0DE01D59601900D928A95E1F73B
:1004B000E12CF12CF20184819581E816F90608F00F
:1004C00057C080819181009729F0FC01EE0DFF1D3E
:1004D000308001C0312C832D8F7D81548A3168F5A5
:1004E0005301832C032C000C990885010619170968
:1004F000F50181915F0183110BC0000F111FE1E035
:10050000F0E0EC0FFD1FE00FF11F6081718126C04C
:10051000082E000C990B0E9483088816990629F76B
:10052000000F111FE1E0F0E0EC0FFD1FE00FF11FE5
:100530006081718182E090E013C0D601FD01EC1969
:10054000FD098D918311FACFEE0FFF1F81E090E03E
:100550008C0F9D1FE80FF91F64A975A980E090E03A
:100560000E9408020E94FD019FEFE91AF90AA2CF3A
:10057000C357DF4F0FB6F894DEBF0FBECDBFDF917C
:10058000CF911F910F91FF90EF90DF90CF90BF9090
:10059000AF909F908F907F906F905F904F903F9023
:1005A0000895FC01808191810C943407EF92FF92B1
:1005B0000F931F93CF93DF93EC01198218821B8254
:1005C0001A821D821C821E8261157105B9F17B01A0
:1005D000FB0101900020E9F731978F01061B170BF3
:1005E000B8016F5F7F4F80E090E00E94BD070097E9
:1005F00059F0998388831B830A832C813D81232BA7
:1006000081F4FC0110820DC088819981009711F05E
:100610000E943407198218821D821C821B821A8252
:100620000DC01D830C83B70188819981DF91CF9123
:100630001F910F91FF90EF900C949408DF91CF9150
:100640001F910F91FF90EF9008951F920F920FB698
:100650000F9211242F933F938F939F93EF93FF93C8
:100660002091D7023091D8028091D9029091DA027C
:100670002817390731F48091C1008F7D8093C10024
:1006800014C0E091D902F091DA02E956FD4F2081C1
:100690008091D9029091DA0201968F7399279093F5
:1006A000DA028093D9022093C600FF91EF919F91C7
:1006B0008F913F912F910F900FBE0F901F90189523
:1006C0001F920F920FB60F9211242F934F935F93A7
:1006D0008F939F93EF93FF938091C00082FD1CC086
:1006E0002091C60080911B0390911C0340911D0333
:1006F00050911E0301968F7399274817590771F07F
:10070000E0911B03F0911C03E552FD4F2083909371
:100710001C0380931B0302C08091C600FF91EF91E0
:100720009F918F915F914F912F910F900FBE0F90DE
:100730001F9018951F920F920FB60F9211242F93AE
:100740003F938F939F93AF93BF9380918F0290912C
:100750009002A0919102B091920230918E0223E01A
:10076000230F2D3720F40196A11DB11D05C026E8E9
:10077000230F0296A11DB11D20938E0280938F023C
:1007800090939002A0939102B09392028091930271
:1007900090919402A0919502B09196020196A11DAC
:1007A000B11D8093930290939402A0939502B0930D
:1007B0009602BF91AF919F918F913F912F910F9092
:1007C0000FBE0F901F901895EFE1F3E01382128295
:1007D00088EE93E0A0E0B0E084839583A683B7839E
:1007E00087E991E0918380838BED92E09587848700
:1007F00087E992E09787868785EC90E0918B808BE4
:1008000084EC90E0938B828B80EC90E0958B848BD2
:1008100081EC90E0978B868B82EC90E0918F808FBB
:1008200086EC90E0938F828F84E0848F83E0858FC5
:1008300087E0868F85E0878F81E080A30895CF933E
:10084000DF93CDB7DEB727970FB6F894DEBF0FBEA4
:10085000CDBF789484B5826084BD84B5816084BD49
:1008600085B5826085BD85B5816085BD80916E004E
:10087000816080936E00109281008091810082607F
:1008800080938100809181008160809381008091BC
:1008900080008160809380008091B10084608093AB
:1008A000B1008091B00081608093B00080917A00A7
:1008B000846080937A0080917A00826080937A00CD
:1008C00080917A00816080937A0080917A008068BC
:1008D00080937A001092C1000E94D00080E00E94B4
:1008E0008700E0913303F091340381E090E09C01B4
:1008F00000903F0302C0220F331F0A94E2F72083C7
:10090000E0912F03F09130031082E0913103F091D8
:1009100032032FEC208310924003E0913503F091D5
:10092000360340819C0100903B0302C0220F331F1D
:100930000A94E2F7242B2083E0913503F0913603EB
:1009400040819C0100903C0302C0220F331F0A9497
:10095000E2F7242B2083E0913503F09136034081A8
:100960009C0100903D0302C0220F331F0A94E2F75E
:10097000242B2083E0913503F091360320810090F1
:100980003E0302C0880F991F0A94E2F780958223E4
:10099000808360ED77E080E090E00E94D70165E120
:1009A00070E088E090E00E9408020E94FD0164EF80
:1009B00071E080E090E00E94D70163EA71E0CE012F
:1009C00001960E94D602CE0101960E941302CE012A
:1009D00001960E94D10268E270E080E090E00E94FF
:1009E00008020E94FD0160ED77E080E090E00E9447
:1009F000D7016BEA71E0CE0101960E94D602CE01CA
:100A000001960E941302CE0101960E94D1020E941B
:100A1000FD0161E270E082E090E00E9408020E9425
:100A2000FD016DEC71E0CE0101960E94D602CE016F
:100A300001960E941302CE0101960E94D1020E94EB
:100A4000FD0161E270E082E090E00E9408020E94F5
:100A5000FD0169EE71E0CE0101960E94D602CE0141
:100A600001960E941302CE0101960E94D1020E94BB
:100A7000FD0163E370E082E090E00E9408020E94C2
:100A8000FD0163E370E082E090E00E9408020E94B2
:100A9000FD0162E072E0CE0101960E94D602CE0115
:100AA00001960E941302CE0101960E94D1020E947B
:100AB000FD0166E270E082E090E00E9408020E9480
:100AC000FD0167E270E082E090E00E9408020E946F
:100AD000FD0167EE71E0CE0101960E94D602CE01C3
:100AE00001960E941302CE0101960E94D1020E943B
:100AF000FD0161E270E082E090E00E9408020E9445
:100B0000FD0164E172E0CE0101960E94D602CE01A1
:100B100001960E941302CE0101960E94D1020E940A
:100B2000FD0163E370E082E090E00E9408020E9411
:100B3000FD0163E370E082E090E00E9408020E9401
:100B4000FD016EE372E0CE0101960E94D602CE0155
:100B500001960E941302CE0101960E94D1020E94CA
:100B6000FD0161E270E082E090E00E9408020E94D4
:100B7000FD0166E572E0CE0101960E94D602CE012B
:100B800001960E941302CE0101960E94D1020E949A
:100B9000FD0166E270E082E090E00E9408020E949F
:100BA000FD0167E672E0CE0101960E94D602CE01F9
:100BB00001960E941302CE0101960E94D1020E946A
:100BC000FD0163E370E082E090E00E9408020E9471
:100BD000FD016DE672E0CE0101960E94D602CE01C3
:100BE00001960E941302CE0101960E94D1020E943A
:100BF000FD0163E370E082E090E00E9408020E9441
:100C0000FD016FE772E0CE0101960E94D602CE018F
:100C100001960E941302CE0101960E94D10267E262
:100C200070E082E090E00E9408020E94FD0167EE01
:100C300071E0CE0101960E94D602CE0101960E947B
:100C40001302CE0101960E94D1020E94FD0168E2CA
:100C500070E080E090E00E9408020E94FD01809117
:100C60002D0390912E03FC01E05CFF4FDC01AE5B95
:100C7000BF4F408151812D913C91119742175307ED
:100C8000C1F7E0913503F0913603308181E090E0C7
:100C9000AC0100903B0302C0440F551F0A94E2F7D9
:100CA000242F209523232083E0913503F0913603F0
:100CB0003081AC0100903C0302C0440F551F0A94E0
:100CC000E2F7242F209523232083E0913503F09130
:100CD00036033081AC0100903D0302C0440F551F24
:100CE0000A94E2F7242F209523232083E0913503F3
:100CF000F0913603208100903E0302C0880F991FB7
:100D00000A94E2F780958223808380912B0390914F
:100D10002C03FC01EE5BFF4F208131813297318340
:100D200020830E94D00081E00E9487000E948601FB
:100D3000FDCFF8940C94D8080F931F93CF93DF93B3
:100D40008230910510F482E090E0E0914303F0914D
:100D5000440320E030E0A0E0B0E0309719F140819A
:100D600051810281138148175907C8F084179507EC
:100D700069F4109731F012960C93129713961C9306
:100D800027C0009343031093440322C0211531056B
:100D900019F04217530718F49A01BD01EF01DF0162
:100DA000F801DBCF21153105F9F0281B390B243070
:100DB000310580F48A819B816115710521F0FB0169
:100DC0009383828304C09093440380934303FE0182
:100DD000329644C0FE01E20FF31F8193919322509B
:100DE0003109398328833AC020914103309142036D
:100DF000232B41F4209102013091030130934203EF
:100E0000209341032091000130910101211531050A
:100E100041F42DB73EB74091040150910501241BC8
:100E2000350BE0914103F0914203E217F307A0F480
:100E30002E1B3F0B2817390778F0AC014E5F5F4F30
:100E40002417350748F04E0F5F1F5093420340931D
:100E500041038193919302C0E0E0F0E0CF01DF9184
:100E6000CF911F910F910895CF93DF93009709F4CD
:100E700081C0FC01329713821282A0914303B0918A
:100E80004403109781F420813181820F931F2091B8
:100E90004103309142032817390751F5F09342037B
:100EA000E093410367C0ED0120E030E0CE17DF079B
:100EB00040F44A815B819E0141155105F1F0EA0140
:100EC000F5CFD383C28340815181840F951FC8170A
:100ED000D90759F488819981840F951F02969183CF
:100EE00080838A819B81938382832115310529F434
:100EF000F0934403E09343033DC0E901FB83EA839D
:100F000049915991C40FD51FEC17FD0761F48081F9
:100F10009181840F951F0296E901998388838281CC
:100F200093819B838A83E0E0F0E012968D919C91FF
:100F30001397009719F0FD01DC01F7CF8D919C917B
:100F400011979D012E5F3F4F820F931F2091410308
:100F5000309142032817390769F4309729F4109229
:100F600044031092430302C013821282B0934203DF
:100F7000A0934103DF91CF910895A0E0B0E0E3ECAE
:100F8000F7E00C949F08EC01009721F4CB010E943C
:100F90009C06B4C0FC01E60FF71F9C0122503109EA
:100FA000E217F30708F4A8C0D9010D911C9111971D
:100FB00006171707B0F00530110508F49BC0C801EB
:100FC00004978617970708F495C002501109061B6D
:100FD000170B019311936D937C93CF010E943407FB
:100FE00089C05B01A01AB10A4C01800E911EA0912C
:100FF0004303B0914403612C712CE12CF12C109728
:1010000009F446C08D919C911197A815B905B1F5C9
:101010006C0142E0C40ED11CCA14DB0478F14C010F
:101020008A189B08640142E0C40ED11C1296BC9041
:1010300012971396AC91B5E0CB16D10440F0B28272
:10104000A38391828082D9016D937C9309C00E5F46
:101050001F4F800F911FF90191838083EB2DFA2F91
:10106000E114F10431F0D7011396FC93EE9312973B
:1010700041C0F0934403E09343033CC068167906F3
:1010800008F43C017D0112960D90BC91A02DB7CFC4
:10109000809141039091420388169906E1F4661607
:1010A0007706C8F48091000190910101009741F406
:1010B0008DB79EB74091040150910501841B950B9B
:1010C000E817F907C8F4F0934203E0934103F901EC
:1010D000718360830FC0CB010E949C067C01009746
:1010E00059F0A801BE010E948B08CE010E9434076E
:1010F000C70104C0CE0102C080E090E0CDB7DEB7EA
:10110000EEE00C94BB089111089581568A5108F4C1
:10111000805285580895FB01DC0102C001900D92B8
:1011200041505040D8F70895FB01DC0101900D9229
:101130000020E1F708952F923F924F925F926F92B5
:101140007F928F929F92AF92BF92CF92DF92EF9257
:10115000FF920F931F93CF93DF93CDB7DEB7CA1BD8
:10116000DB0B0FB6F894DEBF0FBECDBF09942A8803
:10117000398848885F846E847D848C849B84AA84AB
:10118000B984C884DF80EE80FD800C811B81AA8138
:10119000B981CE0FD11D0FB6F894DEBF0FBECDBF03
:1011A000ED010895EE0FFF1F0590F491E02D0994D5
:0411B000F894FFCFE1
:1011B4000000450320006162636465666768696ACC
:1011C4006B6C6D6E6F707172737475767778797AF3
:1011D4000400050006000700080009000A000B00CF
:1011E4000C000D000E000F0010001100120013007F
:1011F4001400150016001700180019001A001B002F
:101204001C001D00313233343536373839302D3D2A
:101214005B5D5C3B272C2E2F201E001F002000212D
:10122400002200230024002500260027002D002E84
:10123400002F00300031003300340036003700380E
:10124400002C0000000000ED008A0176013A015AEA
:10125400012F01636D642E65786500706F77657288
:101264007368656C6C2E657865202D6E6F70202D0B
:10127400772068696464656E202D632000763D6E76
:1012840065772D6F626A656374206E65742E776569
:1012940062636C69656E743B00762E70726F787948
:1012A4003D5B4E65742E5765625265717565737446
:1012B4005D0047657453797374656D576562507248
:1012C4006F787900762E50726F78792E4372656448
:1012D400656E7469616C733D5B4E65742E43726513
:1012E40064656E7469616C43616368655D0044653F
:1012F4006661756C7443726564656E7469616C7360
:101304003B4945582000762E646F776E6C6F61649C
:10131400737472696E67002768747470002F2F31BC
:1013240033312E3135302E3130342E3232350038CF
:061334003038302F2700C5
:00000001FF
